{
  "contractName": "Appointment",
  "abi": [
    {
      "inputs": [
        {
          "internalType": "address",
          "name": "",
          "type": "address"
        },
        {
          "internalType": "uint256",
          "name": "",
          "type": "uint256"
        }
      ],
      "name": "DOCTORS",
      "outputs": [
        {
          "internalType": "string",
          "name": "date",
          "type": "string"
        },
        {
          "internalType": "string",
          "name": "time",
          "type": "string"
        },
        {
          "internalType": "address",
          "name": "patient",
          "type": "address"
        },
        {
          "internalType": "string",
          "name": "patient_name",
          "type": "string"
        },
        {
          "internalType": "address",
          "name": "doctor",
          "type": "address"
        },
        {
          "internalType": "string",
          "name": "doctor_name",
          "type": "string"
        },
        {
          "internalType": "string",
          "name": "status",
          "type": "string"
        }
      ],
      "stateMutability": "view",
      "type": "function",
      "constant": true
    },
    {
      "inputs": [
        {
          "internalType": "address",
          "name": "",
          "type": "address"
        },
        {
          "internalType": "uint256",
          "name": "",
          "type": "uint256"
        }
      ],
      "name": "PATIENTS",
      "outputs": [
        {
          "internalType": "string",
          "name": "date",
          "type": "string"
        },
        {
          "internalType": "string",
          "name": "time",
          "type": "string"
        },
        {
          "internalType": "address",
          "name": "patient",
          "type": "address"
        },
        {
          "internalType": "string",
          "name": "patient_name",
          "type": "string"
        },
        {
          "internalType": "address",
          "name": "doctor",
          "type": "address"
        },
        {
          "internalType": "string",
          "name": "doctor_name",
          "type": "string"
        },
        {
          "internalType": "string",
          "name": "status",
          "type": "string"
        }
      ],
      "stateMutability": "view",
      "type": "function",
      "constant": true
    },
    {
      "inputs": [
        {
          "internalType": "string",
          "name": "str1",
          "type": "string"
        },
        {
          "internalType": "string",
          "name": "str2",
          "type": "string"
        }
      ],
      "name": "compare",
      "outputs": [
        {
          "internalType": "bool",
          "name": "",
          "type": "bool"
        }
      ],
      "stateMutability": "pure",
      "type": "function",
      "constant": true
    },
    {
      "inputs": [
        {
          "internalType": "uint256",
          "name": "_index",
          "type": "uint256"
        },
        {
          "internalType": "string",
          "name": "_time",
          "type": "string"
        }
      ],
      "name": "confirm_appointment",
      "outputs": [],
      "stateMutability": "nonpayable",
      "type": "function"
    },
    {
      "inputs": [],
      "name": "get_pending_requests",
      "outputs": [
        {
          "components": [
            {
              "internalType": "string",
              "name": "date",
              "type": "string"
            },
            {
              "internalType": "string",
              "name": "time",
              "type": "string"
            },
            {
              "internalType": "address",
              "name": "patient",
              "type": "address"
            },
            {
              "internalType": "string",
              "name": "patient_name",
              "type": "string"
            },
            {
              "internalType": "address",
              "name": "doctor",
              "type": "address"
            },
            {
              "internalType": "string",
              "name": "doctor_name",
              "type": "string"
            },
            {
              "internalType": "string",
              "name": "status",
              "type": "string"
            }
          ],
          "internalType": "struct Appointment.appointment[]",
          "name": "",
          "type": "tuple[]"
        }
      ],
      "stateMutability": "view",
      "type": "function",
      "constant": true
    },
    {
      "inputs": [],
      "name": "get_confirmed_appointments",
      "outputs": [
        {
          "components": [
            {
              "internalType": "string",
              "name": "date",
              "type": "string"
            },
            {
              "internalType": "string",
              "name": "time",
              "type": "string"
            },
            {
              "internalType": "address",
              "name": "patient",
              "type": "address"
            },
            {
              "internalType": "string",
              "name": "patient_name",
              "type": "string"
            },
            {
              "internalType": "address",
              "name": "doctor",
              "type": "address"
            },
            {
              "internalType": "string",
              "name": "doctor_name",
              "type": "string"
            },
            {
              "internalType": "string",
              "name": "status",
              "type": "string"
            }
          ],
          "internalType": "struct Appointment.appointment[]",
          "name": "",
          "type": "tuple[]"
        }
      ],
      "stateMutability": "view",
      "type": "function",
      "constant": true
    },
    {
      "inputs": [
        {
          "internalType": "uint256",
          "name": "_index",
          "type": "uint256"
        }
      ],
      "name": "reject_pending_request",
      "outputs": [],
      "stateMutability": "nonpayable",
      "type": "function"
    },
    {
      "inputs": [
        {
          "internalType": "uint256",
          "name": "_index",
          "type": "uint256"
        }
      ],
      "name": "cancel_confirmed_appointment",
      "outputs": [],
      "stateMutability": "nonpayable",
      "type": "function"
    },
    {
      "inputs": [
        {
          "internalType": "uint256",
          "name": "_index",
          "type": "uint256"
        }
      ],
      "name": "mark_as_complete",
      "outputs": [],
      "stateMutability": "nonpayable",
      "type": "function"
    },
    {
      "inputs": [
        {
          "internalType": "string",
          "name": "_patient",
          "type": "string"
        },
        {
          "internalType": "string",
          "name": "_doctor",
          "type": "string"
        },
        {
          "internalType": "string",
          "name": "_date",
          "type": "string"
        },
        {
          "internalType": "address",
          "name": "docAddr",
          "type": "address"
        }
      ],
      "name": "request_appointment",
      "outputs": [],
      "stateMutability": "nonpayable",
      "type": "function"
    },
    {
      "inputs": [],
      "name": "patient_get_all_appointments",
      "outputs": [
        {
          "components": [
            {
              "internalType": "string",
              "name": "date",
              "type": "string"
            },
            {
              "internalType": "string",
              "name": "time",
              "type": "string"
            },
            {
              "internalType": "address",
              "name": "patient",
              "type": "address"
            },
            {
              "internalType": "string",
              "name": "patient_name",
              "type": "string"
            },
            {
              "internalType": "address",
              "name": "doctor",
              "type": "address"
            },
            {
              "internalType": "string",
              "name": "doctor_name",
              "type": "string"
            },
            {
              "internalType": "string",
              "name": "status",
              "type": "string"
            }
          ],
          "internalType": "struct Appointment.appointment[]",
          "name": "",
          "type": "tuple[]"
        }
      ],
      "stateMutability": "view",
      "type": "function",
      "constant": true
    },
    {
      "inputs": [],
      "name": "patient_get_pending_requests",
      "outputs": [
        {
          "components": [
            {
              "internalType": "string",
              "name": "date",
              "type": "string"
            },
            {
              "internalType": "string",
              "name": "time",
              "type": "string"
            },
            {
              "internalType": "address",
              "name": "patient",
              "type": "address"
            },
            {
              "internalType": "string",
              "name": "patient_name",
              "type": "string"
            },
            {
              "internalType": "address",
              "name": "doctor",
              "type": "address"
            },
            {
              "internalType": "string",
              "name": "doctor_name",
              "type": "string"
            },
            {
              "internalType": "string",
              "name": "status",
              "type": "string"
            }
          ],
          "internalType": "struct Appointment.appointment[]",
          "name": "",
          "type": "tuple[]"
        }
      ],
      "stateMutability": "view",
      "type": "function",
      "constant": true
    },
    {
      "inputs": [],
      "name": "patient_get_confirmed_appointments",
      "outputs": [
        {
          "components": [
            {
              "internalType": "string",
              "name": "date",
              "type": "string"
            },
            {
              "internalType": "string",
              "name": "time",
              "type": "string"
            },
            {
              "internalType": "address",
              "name": "patient",
              "type": "address"
            },
            {
              "internalType": "string",
              "name": "patient_name",
              "type": "string"
            },
            {
              "internalType": "address",
              "name": "doctor",
              "type": "address"
            },
            {
              "internalType": "string",
              "name": "doctor_name",
              "type": "string"
            },
            {
              "internalType": "string",
              "name": "status",
              "type": "string"
            }
          ],
          "internalType": "struct Appointment.appointment[]",
          "name": "",
          "type": "tuple[]"
        }
      ],
      "stateMutability": "view",
      "type": "function",
      "constant": true
    },
    {
      "inputs": [
        {
          "internalType": "uint256",
          "name": "_index",
          "type": "uint256"
        }
      ],
      "name": "patient_delete_pending_request",
      "outputs": [],
      "stateMutability": "nonpayable",
      "type": "function"
    },
    {
      "inputs": [
        {
          "internalType": "uint256",
          "name": "_index",
          "type": "uint256"
        }
      ],
      "name": "patient_cancel_confirmed_appointment",
      "outputs": [],
      "stateMutability": "nonpayable",
      "type": "function"
    }
  ],
  "bytecode": "0x608060405234801561001057600080fd5b506139d9806100206000396000f3fe608060405234801561001057600080fd5b50600436106100f55760003560e01c80637dfe675211610097578063c515795011610066578063c5157950146101ed578063eaaf4be9146101f5578063eff44a9714610208578063faaae02314610210576100f5565b80637dfe6752146101ac57806387a1e65d146101bf57806394557632146101c75780639cb5378a146101da576100f5565b80633a96fdd7116100d35780633a96fdd7146101405780634831bc61146101605780636936b545146101865780637745ab9614610199576100f5565b80630299e0a3146100fa57806316b170c61461010f57806320198f931461012d575b600080fd5b61010d61010836600461368d565b610218565b005b6101176103f9565b6040516101249190613735565b60405180910390f35b61010d61013b36600461368d565b610769565b61015361014e366004613597565b61099c565b6040516101249190613833565b61017361016e36600461356e565b6109f5565b604051610124979695949392919061383e565b61010d61019436600461368d565b610d1a565b6101736101a736600461356e565b610dae565b61010d6101ba3660046135f8565b610dca565b61011761107b565b61010d6101d536600461368d565b6115c3565b61010d6101e836600461368d565b61177a565b610117611922565b61010d6102033660046136a5565b611e66565b6101176120d2565b610117612555565b6000610243826040518060400160405280600781526020016650656e64696e6760c81b8152506129d6565b90506040518060400160405280600781526020016611195b195d195960ca1b815250600080336001600160a01b03166001600160a01b0316815260200190815260200160002082815481106102a857634e487b7160e01b600052603260045260246000fd5b906000526020600020906007020160060190805190602001906102cc92919061332f565b503360009081526020819052604081208054839081106102fc57634e487b7160e01b600052603260045260246000fd5b6000918252602080832060046007909302019190910154338352908290526040822080546001600160a01b039092169350908490811061034c57634e487b7160e01b600052603260045260246000fd5b9060005260206000209060070201600001805461036890613921565b80601f016020809104026020016040519081016040528092919081815260200182805461039490613921565b80156103e15780601f106103b6576101008083540402835291602001916103e1565b820191906000526020600020905b8154815290600101906020018083116103c457829003601f168201915b505050505090506103f3823383612b0f565b50505050565b33600090815260208181526040808320805482518185028101850190935280835260609492939192909184015b8282101561076057838290600052602060002090600702016040518060e001604052908160008201805461045990613921565b80601f016020809104026020016040519081016040528092919081815260200182805461048590613921565b80156104d25780601f106104a7576101008083540402835291602001916104d2565b820191906000526020600020905b8154815290600101906020018083116104b557829003601f168201915b505050505081526020016001820180546104eb90613921565b80601f016020809104026020016040519081016040528092919081815260200182805461051790613921565b80156105645780601f1061053957610100808354040283529160200191610564565b820191906000526020600020905b81548152906001019060200180831161054757829003601f168201915b505050918352505060028201546001600160a01b0316602082015260038201805460409092019161059490613921565b80601f01602080910402602001604051908101604052809291908181526020018280546105c090613921565b801561060d5780601f106105e25761010080835404028352916020019161060d565b820191906000526020600020905b8154815290600101906020018083116105f057829003601f168201915b505050918352505060048201546001600160a01b0316602082015260058201805460409092019161063d90613921565b80601f016020809104026020016040519081016040528092919081815260200182805461066990613921565b80156106b65780601f1061068b576101008083540402835291602001916106b6565b820191906000526020600020905b81548152906001019060200180831161069957829003601f168201915b505050505081526020016006820180546106cf90613921565b80601f01602080910402602001604051908101604052809291908181526020018280546106fb90613921565b80156107485780601f1061071d57610100808354040283529160200191610748565b820191906000526020600020905b81548152906001019060200180831161072b57829003601f168201915b50505050508152505081526020019060010190610426565b50505050905090565b6000610796826040518060400160405280600981526020016810dbdb999a5c9b595960ba1b815250612ce7565b905060405180604001604052806008815260200167436f6d706c65746560c01b81525060016000336001600160a01b03166001600160a01b0316815260200190815260200160002082815481106107fd57634e487b7160e01b600052603260045260246000fd5b9060005260206000209060070201600601908051906020019061082192919061332f565b5033600090815260016020526040812080548390811061085157634e487b7160e01b600052603260045260246000fd5b600091825260208083206002600790930201919091015433835260019091526040822080546001600160a01b03909216935090849081106108a257634e487b7160e01b600052603260045260246000fd5b906000526020600020906007020160000180546108be90613921565b80601f01602080910402602001604051908101604052809291908181526020018280546108ea90613921565b80156109375780601f1061090c57610100808354040283529160200191610937565b820191906000526020600020905b81548152906001019060200180831161091a57829003601f168201915b505050505090506103f382336040518060400160405280600981526020016810dbdb999a5c9b595960ba1b81525060405180604001604052806008815260200167436f6d706c65746560c01b8152508560405180602001604052806000815250612d77565b6000816040516020016109af9190613719565b60405160208183030381529060405280519060200120836040516020016109d69190613719565b6040516020818303038152906040528051906020012014905092915050565b60006020528160005260406000208181548110610a1157600080fd5b906000526020600020906007020160009150915050806000018054610a3590613921565b80601f0160208091040260200160405190810160405280929190818152602001828054610a6190613921565b8015610aae5780601f10610a8357610100808354040283529160200191610aae565b820191906000526020600020905b815481529060010190602001808311610a9157829003601f168201915b505050505090806001018054610ac390613921565b80601f0160208091040260200160405190810160405280929190818152602001828054610aef90613921565b8015610b3c5780601f10610b1157610100808354040283529160200191610b3c565b820191906000526020600020905b815481529060010190602001808311610b1f57829003601f168201915b505050600284015460038501805494956001600160a01b03909216949193509150610b6690613921565b80601f0160208091040260200160405190810160405280929190818152602001828054610b9290613921565b8015610bdf5780601f10610bb457610100808354040283529160200191610bdf565b820191906000526020600020905b815481529060010190602001808311610bc257829003601f168201915b505050600484015460058501805494956001600160a01b03909216949193509150610c0990613921565b80601f0160208091040260200160405190810160405280929190818152602001828054610c3590613921565b8015610c825780601f10610c5757610100808354040283529160200191610c82565b820191906000526020600020905b815481529060010190602001808311610c6557829003601f168201915b505050505090806006018054610c9790613921565b80601f0160208091040260200160405190810160405280929190818152602001828054610cc390613921565b8015610d105780601f10610ce557610100808354040283529160200191610d10565b820191906000526020600020905b815481529060010190602001808311610cf357829003601f168201915b5050505050905087565b6000610d47826040518060400160405280600981526020016810dbdb999a5c9b595960ba1b8152506129d6565b90506040518060400160405280600981526020016810d85b98d95b1b195960ba1b815250600080336001600160a01b03166001600160a01b0316815260200190815260200160002082815481106102a857634e487b7160e01b600052603260045260246000fd5b60016020528160005260406000208181548110610a1157600080fd5b6001600160a01b0381166000818152600160208181526040808420815160e08101835288815282518085018452868152818501523381840152606081018b9052608081019690965260a08601899052815180830190925260078083526650656e64696e6760c81b8385015260c08701929092528054938401815584529281902084518051939094020192610e64928492919091019061332f565b506020828101518051610e7d926001850192019061332f565b5060408201516002820180546001600160a01b0319166001600160a01b0390921691909117905560608201518051610ebf91600384019160209091019061332f565b5060808201516004820180546001600160a01b0319166001600160a01b0390921691909117905560a08201518051610f0191600584019160209091019061332f565b5060c08201518051610f1d91600684019160209091019061332f565b505033600081815260208181526040808320815160e081018352888152825180850184528581528185015280830195909552606085018a90526001600160a01b038716608086015260a08501899052815180830190925260078083526650656e64696e6760c81b8385015260c086019290925280546001810182559084529282902084518051959650939091020192610fb9928492019061332f565b506020828101518051610fd2926001850192019061332f565b5060408201516002820180546001600160a01b0319166001600160a01b039092169190911790556060820151805161101491600384019160209091019061332f565b5060808201516004820180546001600160a01b0319166001600160a01b0390921691909117905560a0820151805161105691600584019160209091019061332f565b5060c0820151805161107291600684019160209091019061332f565b50505050505050565b606060006110aa60006040518060400160405280600781526020016650656e64696e6760c81b81525033612f7f565b67ffffffffffffffff8111156110d057634e487b7160e01b600052604160045260246000fd5b60405190808252806020026020018201604052801561110957816020015b6110f66133b3565b8152602001906001900390816110ee5790505b5090506000805b336000908152602081905260409020548110156115bb57336000908152602081905260409020805461121a91908390811061115b57634e487b7160e01b600052603260045260246000fd5b9060005260206000209060070201600601805461117790613921565b80601f01602080910402602001604051908101604052809291908181526020018280546111a390613921565b80156111f05780601f106111c5576101008083540402835291602001916111f0565b820191906000526020600020905b8154815290600101906020018083116111d357829003601f168201915b50505050506040518060400160405280600781526020016650656e64696e6760c81b81525061099c565b156115a95733600090815260208190526040902080548290811061124e57634e487b7160e01b600052603260045260246000fd5b90600052602060002090600702016040518060e001604052908160008201805461127790613921565b80601f01602080910402602001604051908101604052809291908181526020018280546112a390613921565b80156112f05780601f106112c5576101008083540402835291602001916112f0565b820191906000526020600020905b8154815290600101906020018083116112d357829003601f168201915b5050505050815260200160018201805461130990613921565b80601f016020809104026020016040519081016040528092919081815260200182805461133590613921565b80156113825780601f1061135757610100808354040283529160200191611382565b820191906000526020600020905b81548152906001019060200180831161136557829003601f168201915b505050918352505060028201546001600160a01b031660208201526003820180546040909201916113b290613921565b80601f01602080910402602001604051908101604052809291908181526020018280546113de90613921565b801561142b5780601f106114005761010080835404028352916020019161142b565b820191906000526020600020905b81548152906001019060200180831161140e57829003601f168201915b505050918352505060048201546001600160a01b0316602082015260058201805460409092019161145b90613921565b80601f016020809104026020016040519081016040528092919081815260200182805461148790613921565b80156114d45780601f106114a9576101008083540402835291602001916114d4565b820191906000526020600020905b8154815290600101906020018083116114b757829003601f168201915b505050505081526020016006820180546114ed90613921565b80601f016020809104026020016040519081016040528092919081815260200182805461151990613921565b80156115665780601f1061153b57610100808354040283529160200191611566565b820191906000526020600020905b81548152906001019060200180831161154957829003601f168201915b50505050508152505083838151811061158f57634e487b7160e01b600052603260045260246000fd5b602002602001018190525081806115a59061395c565b9250505b806115b38161395c565b915050611110565b509091505090565b60006115f0826040518060400160405280600981526020016810dbdb999a5c9b595960ba1b815250612ce7565b336000908152600160205260408120805492935090918390811061162457634e487b7160e01b600052603260045260246000fd5b600091825260208083206002600790930201919091015433835260019091526040822080546001600160a01b039092169350908490811061167557634e487b7160e01b600052603260045260246000fd5b9060005260206000209060070201600001805461169190613921565b80601f01602080910402602001604051908101604052809291908181526020018280546116bd90613921565b801561170a5780601f106116df5761010080835404028352916020019161170a565b820191906000526020600020905b8154815290600101906020018083116116ed57829003601f168201915b5050505050905061177082336040518060400160405280600981526020016810dbdb999a5c9b595960ba1b8152506040518060400160405280600981526020016810d85b98d95b1b195960ba1b8152508560405180602001604052806000815250612d77565b6103f3833361309f565b60006117a5826040518060400160405280600781526020016650656e64696e6760c81b815250612ce7565b33600090815260016020526040812080549293509091839081106117d957634e487b7160e01b600052603260045260246000fd5b600091825260208083206002600790930201919091015433835260019091526040822080546001600160a01b039092169350908490811061182a57634e487b7160e01b600052603260045260246000fd5b9060005260206000209060070201600001805461184690613921565b80601f016020809104026020016040519081016040528092919081815260200182805461187290613921565b80156118bf5780601f10611894576101008083540402835291602001916118bf565b820191906000526020600020905b8154815290600101906020018083116118a257829003601f168201915b5050505050905061177082336040518060400160405280600781526020016650656e64696e6760c81b8152506040518060400160405280600881526020016714995a9958dd195960c21b8152508560405180602001604052806000815250612d77565b6060600061195360006040518060400160405280600981526020016810dbdb999a5c9b595960ba1b81525033612f7f565b67ffffffffffffffff81111561197957634e487b7160e01b600052604160045260246000fd5b6040519080825280602002602001820160405280156119b257816020015b61199f6133b3565b8152602001906001900390816119975790505b5090506000805b336000908152602081905260409020548110156115bb573360009081526020819052604090208054611ac5919083908110611a0457634e487b7160e01b600052603260045260246000fd5b90600052602060002090600702016006018054611a2090613921565b80601f0160208091040260200160405190810160405280929190818152602001828054611a4c90613921565b8015611a995780601f10611a6e57610100808354040283529160200191611a99565b820191906000526020600020905b815481529060010190602001808311611a7c57829003601f168201915b50505050506040518060400160405280600981526020016810dbdb999a5c9b595960ba1b81525061099c565b15611e5457336000908152602081905260409020805482908110611af957634e487b7160e01b600052603260045260246000fd5b90600052602060002090600702016040518060e0016040529081600082018054611b2290613921565b80601f0160208091040260200160405190810160405280929190818152602001828054611b4e90613921565b8015611b9b5780601f10611b7057610100808354040283529160200191611b9b565b820191906000526020600020905b815481529060010190602001808311611b7e57829003601f168201915b50505050508152602001600182018054611bb490613921565b80601f0160208091040260200160405190810160405280929190818152602001828054611be090613921565b8015611c2d5780601f10611c0257610100808354040283529160200191611c2d565b820191906000526020600020905b815481529060010190602001808311611c1057829003601f168201915b505050918352505060028201546001600160a01b03166020820152600382018054604090920191611c5d90613921565b80601f0160208091040260200160405190810160405280929190818152602001828054611c8990613921565b8015611cd65780601f10611cab57610100808354040283529160200191611cd6565b820191906000526020600020905b815481529060010190602001808311611cb957829003601f168201915b505050918352505060048201546001600160a01b03166020820152600582018054604090920191611d0690613921565b80601f0160208091040260200160405190810160405280929190818152602001828054611d3290613921565b8015611d7f5780601f10611d5457610100808354040283529160200191611d7f565b820191906000526020600020905b815481529060010190602001808311611d6257829003601f168201915b50505050508152602001600682018054611d9890613921565b80601f0160208091040260200160405190810160405280929190818152602001828054611dc490613921565b8015611e115780601f10611de657610100808354040283529160200191611e11565b820191906000526020600020905b815481529060010190602001808311611df457829003601f168201915b505050505081525050838381518110611e3a57634e487b7160e01b600052603260045260246000fd5b60200260200101819052508180611e509061395c565b9250505b80611e5e8161395c565b9150506119b9565b6000611e91836040518060400160405280600781526020016650656e64696e6760c81b815250612ce7565b3360009081526001602052604090208054919250839183908110611ec557634e487b7160e01b600052603260045260246000fd5b90600052602060002090600702016001019080519060200190611ee992919061332f565b50604080518082018252600981526810dbdb999a5c9b595960ba1b602080830191909152336000908152600190915291909120805483908110611f3c57634e487b7160e01b600052603260045260246000fd5b90600052602060002090600702016006019080519060200190611f6092919061332f565b50336000908152600160205260408120805483908110611f9057634e487b7160e01b600052603260045260246000fd5b600091825260208083206002600790930201919091015433835260019091526040822080546001600160a01b0390921693509084908110611fe157634e487b7160e01b600052603260045260246000fd5b90600052602060002090600702016000018054611ffd90613921565b80601f016020809104026020016040519081016040528092919081815260200182805461202990613921565b80156120765780601f1061204b57610100808354040283529160200191612076565b820191906000526020600020905b81548152906001019060200180831161205957829003601f168201915b505050505090506120cb82336040518060400160405280600781526020016650656e64696e6760c81b8152506040518060400160405280600981526020016810dbdb999a5c9b595960ba1b8152508589612d77565b5050505050565b6060600061210360016040518060400160405280600981526020016810dbdb999a5c9b595960ba1b81525033612f7f565b67ffffffffffffffff81111561212957634e487b7160e01b600052604160045260246000fd5b60405190808252806020026020018201604052801561216257816020015b61214f6133b3565b8152602001906001900390816121475790505b5090506000805b336000908152600160205260409020548110156115bb5733600090815260016020526040902080546121b4919083908110611a0457634e487b7160e01b600052603260045260246000fd5b15612543573360009081526001602052604090208054829081106121e857634e487b7160e01b600052603260045260246000fd5b90600052602060002090600702016040518060e001604052908160008201805461221190613921565b80601f016020809104026020016040519081016040528092919081815260200182805461223d90613921565b801561228a5780601f1061225f5761010080835404028352916020019161228a565b820191906000526020600020905b81548152906001019060200180831161226d57829003601f168201915b505050505081526020016001820180546122a390613921565b80601f01602080910402602001604051908101604052809291908181526020018280546122cf90613921565b801561231c5780601f106122f15761010080835404028352916020019161231c565b820191906000526020600020905b8154815290600101906020018083116122ff57829003601f168201915b505050918352505060028201546001600160a01b0316602082015260038201805460409092019161234c90613921565b80601f016020809104026020016040519081016040528092919081815260200182805461237890613921565b80156123c55780601f1061239a576101008083540402835291602001916123c5565b820191906000526020600020905b8154815290600101906020018083116123a857829003601f168201915b505050918352505060048201546001600160a01b031660208201526005820180546040909201916123f590613921565b80601f016020809104026020016040519081016040528092919081815260200182805461242190613921565b801561246e5780601f106124435761010080835404028352916020019161246e565b820191906000526020600020905b81548152906001019060200180831161245157829003601f168201915b5050505050815260200160068201805461248790613921565b80601f01602080910402602001604051908101604052809291908181526020018280546124b390613921565b80156125005780601f106124d557610100808354040283529160200191612500565b820191906000526020600020905b8154815290600101906020018083116124e357829003601f168201915b50505050508152505083838151811061252957634e487b7160e01b600052603260045260246000fd5b6020026020010181905250818061253f9061395c565b9250505b8061254d8161395c565b915050612169565b6060600061258460016040518060400160405280600781526020016650656e64696e6760c81b81525033612f7f565b67ffffffffffffffff8111156125aa57634e487b7160e01b600052604160045260246000fd5b6040519080825280602002602001820160405280156125e357816020015b6125d06133b3565b8152602001906001900390816125c85790505b5090506000805b336000908152600160205260409020548110156115bb57336000908152600160205260409020805461263591908390811061115b57634e487b7160e01b600052603260045260246000fd5b156129c45733600090815260016020526040902080548290811061266957634e487b7160e01b600052603260045260246000fd5b90600052602060002090600702016040518060e001604052908160008201805461269290613921565b80601f01602080910402602001604051908101604052809291908181526020018280546126be90613921565b801561270b5780601f106126e05761010080835404028352916020019161270b565b820191906000526020600020905b8154815290600101906020018083116126ee57829003601f168201915b5050505050815260200160018201805461272490613921565b80601f016020809104026020016040519081016040528092919081815260200182805461275090613921565b801561279d5780601f106127725761010080835404028352916020019161279d565b820191906000526020600020905b81548152906001019060200180831161278057829003601f168201915b505050918352505060028201546001600160a01b031660208201526003820180546040909201916127cd90613921565b80601f01602080910402602001604051908101604052809291908181526020018280546127f990613921565b80156128465780601f1061281b57610100808354040283529160200191612846565b820191906000526020600020905b81548152906001019060200180831161282957829003601f168201915b505050918352505060048201546001600160a01b0316602082015260058201805460409092019161287690613921565b80601f01602080910402602001604051908101604052809291908181526020018280546128a290613921565b80156128ef5780601f106128c4576101008083540402835291602001916128ef565b820191906000526020600020905b8154815290600101906020018083116128d257829003601f168201915b5050505050815260200160068201805461290890613921565b80601f016020809104026020016040519081016040528092919081815260200182805461293490613921565b80156129815780601f1061295657610100808354040283529160200191612981565b820191906000526020600020905b81548152906001019060200180831161296457829003601f168201915b5050505050815250508383815181106129aa57634e487b7160e01b600052603260045260246000fd5b602002602001018190525081806129c09061395c565b9250505b806129ce8161395c565b9150506125ea565b60008080805b33600090815260208190526040902054811015612b06573360009081526020819052604090208054612ac7919083908110612a2757634e487b7160e01b600052603260045260246000fd5b90600052602060002090600702016006018054612a4390613921565b80601f0160208091040260200160405190810160405280929190818152602001828054612a6f90613921565b8015612abc5780601f10612a9157610100808354040283529160200191612abc565b820191906000526020600020905b815481529060010190602001808311612a9f57829003601f168201915b50505050508661099c565b15612af45782612ad68161395c565b9350869050612ae66001856138de565b1415612af457809150612b06565b80612afe8161395c565b9150506129dc565b50949350505050565b6001600160a01b038316600090815260016020526040812054612b339060046138c6565b905060005b6001600160a01b038516600090815260016020526040902054811015612cbc576001600160a01b03858116600090815260016020526040902080549186169183908110612b9557634e487b7160e01b600052603260045260246000fd5b60009182526020909120600260079092020101546001600160a01b0316148015612c9d57506001600160a01b03851660009081526001602052604090208054612c97919083908110612bf757634e487b7160e01b600052603260045260246000fd5b90600052602060002090600702016000018054612c1390613921565b80601f0160208091040260200160405190810160405280929190818152602001828054612c3f90613921565b8015612c8c5780601f10612c6157610100808354040283529160200191612c8c565b820191906000526020600020905b815481529060010190602001808311612c6f57829003601f168201915b50505050508461099c565b15156001145b15612caa57809150612cbc565b80612cb48161395c565b915050612b38565b506001600160a01b0384166000908152600160205260409020548110156103f3576103f3818561309f565b60008080805b33600090815260016020526040902054811015612b06573360009081526001602052604090208054612d38919083908110612a2757634e487b7160e01b600052603260045260246000fd5b15612d655782612d478161395c565b9350869050612d576001856138de565b1415612d6557809150612b06565b80612d6f8161395c565b915050612ced565b60005b6001600160a01b038716600090815260208190526040902054811015611072576001600160a01b03878116600090815260208190526040902080549188169183908110612dd757634e487b7160e01b600052603260045260246000fd5b60009182526020909120600460079092020101546001600160a01b0316148015612e3f57506001600160a01b03871660009081526020819052604090208054612e39919083908110612bf757634e487b7160e01b600052603260045260246000fd5b15156001145b8015612e8957506001600160a01b03871660009081526020819052604090208054612e83919083908110612a2757634e487b7160e01b600052603260045260246000fd5b15156001145b15612f6d57612ea7826040518060200160405280600081525061099c565b612f0c576001600160a01b0387166000908152602081905260409020805483919083908110612ee657634e487b7160e01b600052603260045260246000fd5b90600052602060002090600702016001019080519060200190612f0a92919061332f565b505b6001600160a01b0387166000908152602081905260409020805485919083908110612f4757634e487b7160e01b600052603260045260246000fd5b90600052602060002090600702016006019080519060200190612f6b92919061332f565b505b80612f778161395c565b915050612d7a565b600080846130125760005b6001600160a01b03841660009081526020819052604090205481101561300c576001600160a01b03841660009081526020819052604090208054612fe7919083908110612a2757634e487b7160e01b600052603260045260246000fd5b15612ffa5781612ff68161395c565b9250505b806130048161395c565b915050612f8a565b50613097565b60005b6001600160a01b038416600090815260016020526040902054811015612b06576001600160a01b03841660009081526001602052604090208054613072919083908110612a2757634e487b7160e01b600052603260045260246000fd5b1561308557816130818161395c565b9250505b8061308f8161395c565b915050613015565b949350505050565b815b6001600160a01b0382166000908152600160208190526040909120546130c791906138de565b811015613275576001600160a01b0382166000908152600160208190526040909120906130f59083906138c6565b8154811061311357634e487b7160e01b600052603260045260246000fd5b906000526020600020906007020160016000846001600160a01b03166001600160a01b03168152602001908152602001600020828154811061316557634e487b7160e01b600052603260045260246000fd5b9060005260206000209060070201600082018160000190805461318790613921565b613192929190613402565b5060018201816001019080546131a790613921565b6131b2929190613402565b5060028281015490820180546001600160a01b0319166001600160a01b0390921691909117905560038083018054918301916131ed90613921565b6131f8929190613402565b5060048281015490820180546001600160a01b0319166001600160a01b03909216919091179055600580830180549183019161323390613921565b61323e929190613402565b50600682018160060190805461325390613921565b61325e929190613402565b50905050808061326d9061395c565b9150506130a1565b506001600160a01b03811660009081526001602052604090208054806132ab57634e487b7160e01b600052603160045260246000fd5b600082815260208120600019909201916007830201906132cb828261347d565b6132d960018301600061347d565b6002820180546001600160a01b03191690556132f960038301600061347d565b6004820180546001600160a01b031916905561331960058301600061347d565b61332760068301600061347d565b505090555050565b82805461333b90613921565b90600052602060002090601f01602090048101928261335d57600085556133a3565b82601f1061337657805160ff19168380011785556133a3565b828001600101855582156133a3579182015b828111156133a3578251825591602001919060010190613388565b506133af9291506134bc565b5090565b6040518060e00160405280606081526020016060815260200160006001600160a01b031681526020016060815260200160006001600160a01b0316815260200160608152602001606081525090565b82805461340e90613921565b90600052602060002090601f01602090048101928261343057600085556133a3565b82601f1061344157805485556133a3565b828001600101855582156133a357600052602060002091601f016020900482015b828111156133a3578254825591600101919060010190613462565b50805461348990613921565b6000825580601f1061349b57506134b9565b601f0160209004906000526020600020908101906134b991906134bc565b50565b5b808211156133af57600081556001016134bd565b80356001600160a01b03811681146134e857600080fd5b919050565b600082601f8301126134fd578081fd5b813567ffffffffffffffff808211156135185761351861398d565b604051601f8301601f19168101602001828111828210171561353c5761353c61398d565b604052828152848301602001861015613553578384fd5b82602086016020830137918201602001929092529392505050565b60008060408385031215613580578182fd5b613589836134d1565b946020939093013593505050565b600080604083850312156135a9578182fd5b823567ffffffffffffffff808211156135c0578384fd5b6135cc868387016134ed565b935060208501359150808211156135e1578283fd5b506135ee858286016134ed565b9150509250929050565b6000806000806080858703121561360d578182fd5b843567ffffffffffffffff80821115613624578384fd5b613630888389016134ed565b95506020870135915080821115613645578384fd5b613651888389016134ed565b94506040870135915080821115613666578384fd5b50613673878288016134ed565b925050613682606086016134d1565b905092959194509250565b60006020828403121561369e578081fd5b5035919050565b600080604083850312156136b7578182fd5b82359150602083013567ffffffffffffffff8111156136d4578182fd5b6135ee858286016134ed565b6001600160a01b03169052565b600081518084526137058160208601602086016138f5565b601f01601f19169290920160200192915050565b6000825161372b8184602087016138f5565b9190910192915050565b60208082528251828201819052600091906040908185019080840286018301878501865b8381101561382557603f19898403018552815160e0815181865261377f828701826136ed565b915050888201518582038a87015261379782826136ed565b838a01516001600160a01b0316878b0152606080850151888303828a015291935091506137c483826136ed565b925050506080808301516137da828801826136e0565b505060a080830151868303828801526137f383826136ed565b9250505060c0808301519250858203818701525061381181836136ed565b968901969450505090860190600101613759565b509098975050505050505050565b901515815260200190565b600060e0825261385160e083018a6136ed565b8281036020840152613863818a6136ed565b6001600160a01b038981166040860152848203606086015290915061388882896136ed565b908716608085015283810360a085015290506138a481866136ed565b905082810360c08401526138b881856136ed565b9a9950505050505050505050565b600082198211156138d9576138d9613977565b500190565b6000828210156138f0576138f0613977565b500390565b60005b838110156139105781810151838201526020016138f8565b838111156103f35750506000910152565b60028104600182168061393557607f821691505b6020821081141561395657634e487b7160e01b600052602260045260246000fd5b50919050565b600060001982141561397057613970613977565b5060010190565b634e487b7160e01b600052601160045260246000fd5b634e487b7160e01b600052604160045260246000fdfea2646970667358221220ad528bb65162d0dfa135685070e551f03c2102812c26433d08d8919b337e56fb64736f6c63430008000033",
  "immutableReferences": {},
  "source": "// SPDX-License-Identifier: MIT\r\npragma solidity ^0.8.0;\r\n\r\ncontract Appointment {\r\n    /* DATA STRUCTURES */\r\n\r\n    struct appointment {\r\n        string date;\r\n        string time;\r\n        address patient;\r\n        string patient_name;\r\n        address doctor;\r\n        string doctor_name;\r\n        string status;\r\n    }\r\n\r\n    mapping(address => appointment[]) public PATIENTS;\r\n    mapping(address => appointment[]) public DOCTORS;\r\n\r\n    /* UTILITY FUNCTIONS */\r\n\r\n    function compare(\r\n        string memory str1,\r\n        string memory str2\r\n    ) public pure returns (bool) {\r\n        return\r\n            keccak256(abi.encodePacked(str1)) ==\r\n            keccak256(abi.encodePacked(str2));\r\n    }\r\n\r\n    function get_count(\r\n        uint _role,\r\n        string memory _filter,\r\n        address _addr\r\n    ) private view returns (uint) {\r\n        uint count = 0;\r\n        if (_role == 0) {\r\n            // patient\r\n            for (uint i = 0; i < PATIENTS[_addr].length; i++) {\r\n                if (compare(PATIENTS[_addr][i].status, _filter)) {\r\n                    count++;\r\n                }\r\n            }\r\n        } else {\r\n            // doctor\r\n            for (uint i = 0; i < DOCTORS[_addr].length; i++) {\r\n                if (compare(DOCTORS[_addr][i].status, _filter)) {\r\n                    count++;\r\n                }\r\n            }\r\n        }\r\n        return count;\r\n    }\r\n\r\n    function find_doctor_actual_index(\r\n        uint _index,\r\n        string memory _filter\r\n    ) private view returns (uint) {\r\n        uint count = 0;\r\n        uint pos = 0;\r\n        for (uint i = 0; i < DOCTORS[msg.sender].length; i++) {\r\n            if (compare(DOCTORS[msg.sender][i].status, _filter)) {\r\n                count++;\r\n                if ((count - 1) == _index) {\r\n                    pos = i;\r\n                    break;\r\n                }\r\n            }\r\n        }\r\n        return pos;\r\n    }\r\n\r\n    function find_patient_actual_index(\r\n        uint _index,\r\n        string memory _filter\r\n    ) private view returns (uint) {\r\n        uint count = 0;\r\n        uint pos = 0;\r\n        for (uint i = 0; i < PATIENTS[msg.sender].length; i++) {\r\n            if (compare(PATIENTS[msg.sender][i].status, _filter)) {\r\n                count++;\r\n                if ((count - 1) == _index) {\r\n                    pos = i;\r\n                    break;\r\n                }\r\n            }\r\n        }\r\n        return pos;\r\n    }\r\n\r\n    // delete appointment in doctor's list iteratively\r\n    function iterative_delete(uint _index, address _doctor) private {\r\n        for (uint i = _index; i < DOCTORS[_doctor].length - 1; i++) {\r\n            DOCTORS[_doctor][i] = DOCTORS[_doctor][i + 1];\r\n        }\r\n        DOCTORS[_doctor].pop();\r\n    }\r\n\r\n    // delete appointment in doctor's list when patient deletes his request or cancels his appointment\r\n    function delete_appointment(\r\n        address _doctor,\r\n        address _patient,\r\n        string memory _date\r\n    ) private {\r\n        uint target = DOCTORS[_doctor].length + 4;\r\n        for (uint i = 0; i < DOCTORS[_doctor].length; i++) {\r\n            if (\r\n                DOCTORS[_doctor][i].patient == _patient &&\r\n                compare(DOCTORS[_doctor][i].date, _date) == true\r\n            ) {\r\n                target = i;\r\n                break;\r\n            }\r\n        }\r\n        if (target < DOCTORS[_doctor].length) {\r\n            iterative_delete(target, _doctor);\r\n        }\r\n    }\r\n\r\n    // change status and time in patient's list when doctor confirms or rejects/cancels an appointment\r\n    function change_patient_status(\r\n        address _patient,\r\n        address _doctor,\r\n        string memory _prev,\r\n        string memory _next,\r\n        string memory _date,\r\n        string memory _time\r\n    ) private {\r\n        for (uint i = 0; i < PATIENTS[_patient].length; i++) {\r\n            if (\r\n                PATIENTS[_patient][i].doctor == _doctor &&\r\n                compare(PATIENTS[_patient][i].date, _date) == true &&\r\n                compare(PATIENTS[_patient][i].status, _prev) == true\r\n            ) {\r\n                if (compare(_time, \"\") == false) {\r\n                    PATIENTS[_patient][i].time = _time;\r\n                }\r\n                PATIENTS[_patient][i].status = _next;\r\n            }\r\n        }\r\n    }\r\n\r\n    /* DOCTOR FUNCTIONS */\r\n\r\n    // doctor to see all appointment requests\r\n    // function get_appointment_requests()\r\n    //     public\r\n    //     view\r\n    //     returns (appointment[] memory)\r\n    // {\r\n    //     return DOCTORS[msg.sender];\r\n    // }\r\n\r\n    // doctor to confirm an appointment by specifying a time\r\n    function confirm_appointment(uint _index, string memory _time) public {\r\n        // _index is in pending requests. Find actual index\r\n        uint pos = find_doctor_actual_index(_index, \"Pending\");\r\n\r\n        // change status and time in doctor's list\r\n        DOCTORS[msg.sender][pos].time = _time;\r\n        DOCTORS[msg.sender][pos].status = \"Confirmed\";\r\n\r\n        address _patient = DOCTORS[msg.sender][pos].patient;\r\n        string memory _date = DOCTORS[msg.sender][pos].date;\r\n\r\n        // change status and time in patient's list\r\n        change_patient_status(\r\n            _patient,\r\n            msg.sender,\r\n            \"Pending\",\r\n            \"Confirmed\",\r\n            _date,\r\n            _time\r\n        );\r\n    }\r\n\r\n    // doctor to see pending appointment requests\r\n    function get_pending_requests() public view returns (appointment[] memory) {\r\n        appointment[] memory requests = new appointment[](\r\n            get_count(1, \"Pending\", msg.sender)\r\n        );\r\n        uint k = 0;\r\n        for (uint i = 0; i < DOCTORS[msg.sender].length; i++) {\r\n            if (compare(DOCTORS[msg.sender][i].status, \"Pending\")) {\r\n                requests[k] = DOCTORS[msg.sender][i];\r\n                k++;\r\n            }\r\n        }\r\n        return requests;\r\n    }\r\n\r\n    // doctor to see confirmed appointments\r\n    function get_confirmed_appointments()\r\n        public\r\n        view\r\n        returns (appointment[] memory)\r\n    {\r\n        appointment[] memory confirmed = new appointment[](\r\n            get_count(1, \"Confirmed\", msg.sender)\r\n        );\r\n        uint k = 0;\r\n        for (uint i = 0; i < DOCTORS[msg.sender].length; i++) {\r\n            if (compare(DOCTORS[msg.sender][i].status, \"Confirmed\")) {\r\n                confirmed[k] = DOCTORS[msg.sender][i];\r\n                k++;\r\n            }\r\n        }\r\n        return confirmed;\r\n    }\r\n\r\n    // doctor to reject a pending appointment request\r\n    function reject_pending_request(uint _index) public {\r\n        // _index is in pending requests. Find actual index\r\n        uint pos = find_doctor_actual_index(_index, \"Pending\");\r\n\r\n        address _patient = DOCTORS[msg.sender][pos].patient;\r\n        string memory _date = DOCTORS[msg.sender][pos].date;\r\n\r\n        // change status in patient's list\r\n        change_patient_status(\r\n            _patient,\r\n            msg.sender,\r\n            \"Pending\",\r\n            \"Rejected\",\r\n            _date,\r\n            \"\"\r\n        );\r\n\r\n        // remove appointment from doctor's list\r\n        iterative_delete(pos, msg.sender);\r\n    }\r\n\r\n    // doctor to cancel a confirmed appointment\r\n    function cancel_confirmed_appointment(uint _index) public {\r\n        // _index is in confirmed requests. Find actual index\r\n        uint pos = find_doctor_actual_index(_index, \"Confirmed\");\r\n\r\n        address _patient = DOCTORS[msg.sender][pos].patient;\r\n        string memory _date = DOCTORS[msg.sender][pos].date;\r\n\r\n        // change status in patient's list\r\n        change_patient_status(\r\n            _patient,\r\n            msg.sender,\r\n            \"Confirmed\",\r\n            \"Cancelled\",\r\n            _date,\r\n            \"\"\r\n        );\r\n\r\n        // remove appointment from doctor's list\r\n        iterative_delete(pos, msg.sender);\r\n    }\r\n\r\n    // doctor to mark a confirmed appointment as complete\r\n    function mark_as_complete(uint _index) public {\r\n        // _index is in confirmed requests. Find actual index\r\n        uint pos = find_doctor_actual_index(_index, \"Confirmed\");\r\n\r\n        // change status and time in doctor's list\r\n        DOCTORS[msg.sender][pos].status = \"Complete\";\r\n\r\n        address _patient = DOCTORS[msg.sender][pos].patient;\r\n        string memory _date = DOCTORS[msg.sender][pos].date;\r\n\r\n        // change status in patient's list\r\n        change_patient_status(\r\n            _patient,\r\n            msg.sender,\r\n            \"Confirmed\",\r\n            \"Complete\",\r\n            _date,\r\n            \"\"\r\n        );\r\n    }\r\n\r\n    /* PATIENT FUNCTIONS */\r\n\r\n    // patient to request an appointment by specifying date and doctor address\r\n    function request_appointment(\r\n        string memory _patient,\r\n        string memory _doctor,\r\n        string memory _date,\r\n        address docAddr\r\n    ) public {\r\n        // insert appointment in doctor's map\r\n        DOCTORS[docAddr].push(\r\n            appointment(\r\n                _date,\r\n                \"\",\r\n                msg.sender,\r\n                _patient,\r\n                docAddr,\r\n                _doctor,\r\n                \"Pending\"\r\n            )\r\n        );\r\n\r\n        // insert appointment in patient's map\r\n        PATIENTS[msg.sender].push(\r\n            appointment(\r\n                _date,\r\n                \"\",\r\n                msg.sender,\r\n                _patient,\r\n                docAddr,\r\n                _doctor,\r\n                \"Pending\"\r\n            )\r\n        );\r\n    }\r\n\r\n    // patient to see the appointment requests\r\n    function patient_get_all_appointments()\r\n        public\r\n        view\r\n        returns (appointment[] memory)\r\n    {\r\n        return PATIENTS[msg.sender];\r\n    }\r\n\r\n    // patient to see pending requests\r\n    function patient_get_pending_requests()\r\n        public\r\n        view\r\n        returns (appointment[] memory)\r\n    {\r\n        appointment[] memory requests = new appointment[](\r\n            get_count(0, \"Pending\", msg.sender)\r\n        );\r\n        uint k = 0;\r\n        for (uint i = 0; i < PATIENTS[msg.sender].length; i++) {\r\n            if (compare(PATIENTS[msg.sender][i].status, \"Pending\")) {\r\n                requests[k] = PATIENTS[msg.sender][i];\r\n                k++;\r\n            }\r\n        }\r\n        return requests;\r\n    }\r\n\r\n    // patient to see confirmed appointments\r\n    function patient_get_confirmed_appointments()\r\n        public\r\n        view\r\n        returns (appointment[] memory)\r\n    {\r\n        appointment[] memory confirmed = new appointment[](\r\n            get_count(0, \"Confirmed\", msg.sender)\r\n        );\r\n        uint k = 0;\r\n        for (uint i = 0; i < PATIENTS[msg.sender].length; i++) {\r\n            if (compare(PATIENTS[msg.sender][i].status, \"Confirmed\")) {\r\n                confirmed[k] = PATIENTS[msg.sender][i];\r\n                k++;\r\n            }\r\n        }\r\n        return confirmed;\r\n    }\r\n\r\n    // patient to delete a pending appointment request\r\n    function patient_delete_pending_request(uint _index) public {\r\n        uint pos = find_patient_actual_index(_index, \"Pending\");\r\n\r\n        // change status in patient's list\r\n        PATIENTS[msg.sender][pos].status = \"Deleted\";\r\n\r\n        address _doctor = PATIENTS[msg.sender][pos].doctor;\r\n        string memory _date = PATIENTS[msg.sender][pos].date;\r\n\r\n        // remove appointment from doctor's list\r\n        delete_appointment(_doctor, msg.sender, _date);\r\n    }\r\n\r\n    // patient to cancel a confirmed appointment\r\n    function patient_cancel_confirmed_appointment(uint _index) public {\r\n        uint pos = find_patient_actual_index(_index, \"Confirmed\");\r\n\r\n        // change status in patient's list\r\n        PATIENTS[msg.sender][pos].status = \"Cancelled\";\r\n\r\n        address _doctor = PATIENTS[msg.sender][pos].doctor;\r\n        string memory _date = PATIENTS[msg.sender][pos].date;\r\n\r\n        // remove appointment from doctor's list\r\n        delete_appointment(_doctor, msg.sender, _date);\r\n    }\r\n}",
  "sourcePath": "D:\\blockchain\\contracts\\Appointment.sol",
  "compiler": {
    "name": "solc",
    "version": "0.8.0+commit.c7dfd78e.Emscripten.clang"
  },
  "schemaVersion": "3.4.13",
  "updatedAt": "2023-05-18T07:21:48.666Z",
  "networkType": "ethereum",
  "devdoc": {
    "kind": "dev",
    "methods": {},
    "version": 1
  },
  "userdoc": {
    "kind": "user",
    "methods": {},
    "version": 1
  }
}